{
  "contractName": "SandwichFactory",
  "abi": [
    {
      "constant": false,
      "inputs": [
        {
          "name": "_index",
          "type": "uint256"
        }
      ],
      "name": "eatSandwich",
      "outputs": [],
      "payable": false,
      "stateMutability": "nonpayable",
      "type": "function"
    }
  ],
  "bytecode": "0x6060604052341561000f57600080fd5b61047d8061001e6000396000f300606060405260043610610041576000357c0100000000000000000000000000000000000000000000000000000000900463ffffffff168063db8c5eb414610046575b600080fd5b341561005157600080fd5b6100676004808035906020019091905050610069565b005b60006100736102f2565b60008381548110151561008257fe5b906000526020600020906002020191506040805190810160405280600681526020017f456174656e2100000000000000000000000000000000000000000000000000008152508260010190805190602001906100df929190610318565b506000600184018154811015156100f257fe5b9060005260206000209060020201604080519081016040529081600082018054600181600116156101000203166002900480601f0160208091040260200160405190810160405280929190818152602001828054600181600116156101000203166002900480156101a45780601f10610179576101008083540402835291602001916101a4565b820191906000526020600020905b81548152906001019060200180831161018757829003601f168201915b50505050508152602001600182018054600181600116156101000203166002900480601f0160208091040260200160405190810160405280929190818152602001828054600181600116156101000203166002900480156102465780601f1061021b57610100808354040283529160200191610246565b820191906000526020600020905b81548152906001019060200180831161022957829003601f168201915b50505050508152505090506040805190810160405280600681526020017f456174656e2100000000000000000000000000000000000000000000000000008152508160200181905250806000600185018154811015156102a257fe5b906000526020600020906002020160008201518160000190805190602001906102cc929190610398565b5060208201518160010190805190602001906102e9929190610398565b50905050505050565b6040805190810160405280610305610418565b8152602001610312610418565b81525090565b828054600181600116156101000203166002900490600052602060002090601f016020900481019282601f1061035957805160ff1916838001178555610387565b82800160010185558215610387579182015b8281111561038657825182559160200191906001019061036b565b5b509050610394919061042c565b5090565b828054600181600116156101000203166002900490600052602060002090601f016020900481019282601f106103d957805160ff1916838001178555610407565b82800160010185558215610407579182015b828111156104065782518255916020019190600101906103eb565b5b509050610414919061042c565b5090565b602060405190810160405280600081525090565b61044e91905b8082111561044a576000816000905550600101610432565b5090565b905600a165627a7a72305820347259237ff9b1053dbf482ee4bdc5f1dc28f75592ce8306ab6bcef96c91e3380029",
  "source": "pragma solidity ^0.4.18;\n\ncontract SandwichFactory {\n  struct Sandwich {\n    string name;\n    string status;\n  }\n\n  Sandwich[] sandwiches;\n\n  function eatSandwich(uint _index) public {\n    // Sandwich mySandwich = sandwiches[_index];\n\n    // ^ Seems pretty straightforward, but solidity will give you a warning\n    // telling you you should explicitly declare `storage` or `memory` here.\n\n    // So instead, you should declare with the `storage` keyword, like:\n    Sandwich storage mySandwich = sandwiches[_index];\n    // ...in which case `mySandwich` is a pointer to `sandwiches[_index]`\n    // in storage, and...\n    mySandwich.status = \"Eaten!\";\n    // ...this will permanently change `sandwiches[_index]` on the blockchain.\n\n    // If you just want a copy, you can use `memory`:\n    Sandwich memory anotherSandwich = sandwiches[_index + 1];\n    // ...in which case `anotherSandwich` will simply be a copy of the \n    // data in memory, and...\n    anotherSandwich.status = \"Eaten!\";\n    // ...will just modify the temporary variable and have no effect \n    // on `sandwiches[_index + 1]`. But you can do this:\n    sandwiches[_index + 1] = anotherSandwich;\n    // ...if you want to copy the changes back into blockchain storage.\n  }\n}\n",
  "sourcePath": "/Users/raysapida/tartan/Blockchain/test/contracts/SandwichFactory.sol",
  "compiler": {
    "name": "solc",
    "version": "0.4.18+commit.9cf6e910.Emscripten.clang"
  },
  "schemaVersion": "1.0.1",
  "updatedAt": "2018-02-14T17:11:28.077Z"
}